:020000040800F2
:10000000F02E00206901000899140008FF12000872
:1000100095140008BD0A0008231D00080000000018
:10002000000000000000000000000000351800087B
:10003000F30E00080000000091150008A91900083F
:100040008301000883010008830100088301000880
:100050008301000883010008830100088301000870
:100060008301000883010008BD1000088301000817
:100070008301000883010008830100088301000850
:100080008301000883010008830100088301000840
:100090008301000883010008830100088301000830
:1000A0008301000883010008830100088301000820
:1000B000791A0008A51A0008CD1A00088301000863
:1000C0008301000883010008830100088301000800
:1000D0008301000883010008791C000883010008DF
:1000E000830100088301000883010008000000006C
:1000F0000000000000000000000000000000000000
:1001000000000000000000008301000883010008D7
:1001100083010008830100088301000883010008AF
:10012000830100088301000883010008830100089F
:1001300083010008FD0F0008830100088301000807
:10014000830100088301000883010008830100087F
:10015000DFF80CD000F066FC004800476D2700086F
:10016000F02E0020704700000648804706480047F0
:10017000FEE7FEE7FEE7FEE7FEE7FEE7FEE7FEE757
:10018000FEE7FEE7B11900085101000840EA01034B
:100190009B070AD102E008C9121F08C0042AFAD23C
:1001A00003E011F8013B00F8013B521EF9D2704701
:1001B000F0B480EA0102D20F4300B3EB410F02D248
:1001C0000346084619464B0042D0C30DDDB2C1F3C9
:1001D000C7542C1B202C35DAC1F3160141F400055D
:1001E00002B16D42C4F1200605FA06F1254128440A
:1001F000B3EBD05F23D0C2B1012CA0EBC35009DC1C
:10020000F0BC4FF0004202EAC35200F50000DBB23E
:1002100000F0EBB9400000F1807000EBC350A0F19A
:10022000807040EAD170490009E0490841EAC07194
:10023000A0EBC35000F50000400800EBC350F0BC39
:1002400000F0CAB95142012303EB4101801AF6E7DD
:10025000F0BC704781F00041AAE780F00040A7E7BA
:1002600080EA010210B502F00042400001D04B00CC
:1002700001D1002010BD4FEA106101EB1361C0F302
:100280005600C3F3560340F4000043F40003A0FB00
:100290000330A1F17F014FEA00401C0401D000F1BE
:1002A000010050EA134001D44000491EC3B20C06BD
:1002B00004EBD010401C4008802B01D120F001003D
:1002C000002900DA0020104310BD80EA010202F08C
:1002D000004330B430F0004221F0004015D0A0B10E
:1002E000C0F3C754C2F3C755C2F31601C0F31600DA
:1002F0002D1B41F4000140F400007D35814201D303
:100300006D1C00E04900002D02DA30BC002070476F
:100310004FF400020024814201D3091A1443520809
:100320004FEA4101F7D151B1814202D14FF0004172
:1003300005E002D24FF0010101E06FF0010104EB92
:10034000C55030BC184400F047B92DE9F04D834644
:1003500081EA030023F0004488B000F0004000234D
:1003600021F00045079085EA03018BEA03009246DD
:10037000084305D084EA03018AEA0300084304D154
:100380000020014608B0BDE8F08DC4F30A50C5F363
:100390001301C5F30A521318ABFB0A2541F4801868
:1003A000C4F3130141F48014A3F2F33308FB0A51A0
:1003B00004930BFB04134FEA9B204FEA9A2140EA77
:1003C000885041EA8451A0FB01654FEA982707FB5A
:1003D00001514FEA942C00FB0C1739053005151A12
:1003E00041EA163163EB010105914FEA9B604FEA48
:1003F0009A6140EA881041EA8411A0FB0140321E54
:10040000804667EB0403280D0599C5F3130540EA00
:100410000130861843EB1150001948F10001049B8C
:100420002A030C3B46EA15540293079D0023CDE9AD
:100430000035234600F020F9A4E7C10F80EAE07000
:100440000844CA079623002100F0CFB80EB5C20FAA
:1004500080EAE07010440021D20740F233438DE877
:100460000E000B460A4600F007F903B000BD20F06D
:100470000040C10DC0F3160040F400007F2901DAEE
:1004800000207047962903DCC1F19601C8407047EF
:1004900096398840704770B501F0004621F0004160
:1004A0000A0D0025C1F3130140F2FF3341F480111E
:1004B0009A4201DA002070BD40F233439A42A2F220
:1004C000334203DC524200F078F801E000FA02F017
:1004D0000023044686EA030185EA0300084301D0AD
:1004E000604270BD204670BD00F0004230F0004018
:1004F00001D101467047C30DC0F3160003F56073C8
:10050000C108400742EA035211437047002801DB4B
:10051000C0F10040002901DBC1F100418142704778
:10052000002801DBC0F10040002901DBC1F10041DE
:100530008842704730B50B46014600202022012436
:1005400009E021FA02F59D4205D303FA02F5491BA1
:1005500004FA02F52844151EA2F10102F1DC30BDB7
:100560002DE9F047002591469A46074688462E46D3
:10057000402418E022464146384600F01EF8B0EB11
:10058000090071EB0A010ED322465146484600F09D
:100590005BFA3F1A68EB010822460021012000F0B7
:1005A00053FA45194E41201EA4F10104E2DC28460D
:1005B00031463A464346BDE8F087202A04DB203A1C
:1005C00021FA02F000217047D040C2F1200301FA65
:1005D00003F31843D14070470029A8BF7047401C5F
:1005E000490008BF20F00100704710B4B0FA80FC49
:1005F00000FA0CF050EA010404BF10BC704749B186
:10060000CCF1200421FA04F411FA0CF118BF0121F5
:1006100021430843A3EB0C01CB1D4FEA00614FEAD5
:10062000102042BF002010BC704700EBC3501044A4
:100630000029A4BF10BC7047401C490008BF20F02F
:10064000010010BC7047F0B51F46044600230D465C
:10065000D01A164677EB03010BDA641C45F100054E
:10066000B01947EB070159405840084301D124F025
:10067000010420462946F0BD2DE9F04D92469B46E7
:1006800011B1B1FA81F602E0B0FA80F620363246B6
:1006900000F0DAF904460D46002340EA0A0041EA78
:1006A0000B0159405840084303D120462946BDE874
:1006B000F08D00238BEA03018AEA0300084319D076
:1006C000C6F1400259465046FFF777FF0746884675
:1006D00032465946504600F0B7F900235940584079
:1006E000084300D001204FEAE071384348EA010195
:1006F00004430D430A984FEA4457A0EB06034FEA20
:10070000D4200A334FF0000640EA45504FEAD52185
:1007100002D500200146CAE7001C41EB0351DDE988
:100720000823801859413B463246BDE8F04D8AE720
:100730002DE9FF4D81EA030086B04FEAD078069894
:100740001D460F4623F0004321F00041801A164653
:10075000994105D2394606982F46069606460D461B
:10076000002325F00041594086EA0300084304D1E4
:10077000069839460AB0BDE8F08D3C0DC4F30A0076
:10078000C5F30A510590401A049040286BDAC5F36E
:10079000130040F4801AB8F1000F02D076426AEBE1
:1007A0004A0A04985146C0F14002304600F04CF924
:1007B00083460D4651463046049A00F055F9069A94
:1007C00086184F4184EA175050EAE47042D0B8F1DD
:1007D000000F2CD004984FF0000201284FEA045378
:1007E00012DCB01A67EB03014FF0004303EA045434
:1007F000059B001CCDE90143009241F580112B4679
:100800005A46FFF739FFB5E7B01A67EB0301001C42
:1008100041F5801100184941001CA3F5001341EB7C
:10082000030740EAD5761BEB0B0B6D4112E06D0818
:100830004FEA3B0B4FEA0454301E67EB0401001CE7
:1008400041F58011490845EAC6754FEA3000061C9B
:1008500041EB04072B465A46394630460AB0BDE8FC
:10086000F04DFFF7F0BE4FEA48000122141A0023B2
:10087000069A63EBE073B2EB080067EBE87122467F
:10088000ECE783F0004353E781F0004150E72DE9A6
:10089000FF0F054681EA0302002082B002F0004209
:1008A00023F00046CDE90002034621F0004484EA2B
:1008B000030168404FF4801A084325D000230498B0
:1008C00086EA0301584008431ED0C4F30A51C4F31A
:1008D000130242F48014C6F3130242F48012C6F3EA
:1008E0000A5013460592081A049A00F2FD3BA81A12
:1008F000D04674EB030102D30BF1010B01E06D193B
:100900006441BBF1000F05DA06B0BDE8F00F00202E
:100910000146704700264746B046B24611E0DDE981
:100920000423A81A74EB030106D3AD1A64EB030485
:1009300048EA06084AEA070A7F084FEA36066D19B0
:100940006441002387EA030186EA03000843E6D1F5
:1009500084EA030185EA0300084315D0DDE9042396
:1009600084EA030185EA0200084303D100254FF021
:10097000004409E0A81A74EB030102D20125002407
:1009800002E06FF001056C10DDE9002318F10000B2
:100990004AEB0B518018594123462A4606B0BDE860
:1009A000F00FFFF750BE21F000410A0DC1F3130113
:1009B00040F2FF3341F480119A4202DA00200146EE
:1009C000704740F233439A42A2F2334202DC524271
:1009D000FFF7F3BD00F038B82DE9F04107460D46AA
:1009E000002001F000414140404016461C464FF0B7
:1009F0000048084302D17F4268EB0505002004F05F
:100A0000004141404040084302D1764268EB040473
:100A10003846294632462346994208BF9042BDE8EF
:100A2000F0810000064C074D06E0E06840F001034D
:100A300094E8070098471034AC42F6D3FFF78CFBDC
:100A4000082A0008282A0008202A04DB0023203A6C
:100A500000FA02F106E000FA02F39140C2F120022E
:100A6000D040014318467047202A06DB203A41FA5D
:100A700002F0C21742EAE1717047D040C2F1200390
:100A800001FA03F3184311417047000010B50848FC
:100A9000007801280AD10748008807490988884258
:100AA00004DB01F0DBF800200149087010BD0000F4
:100AB00084000020860000208800002000BFFEE7A0
:100AC00070B5A748007800282FD1482000F012FA0E
:100AD000142000F029FA00F06BFC0920A1490870ED
:100AE00054204870692088706D20C8706520087196
:100AF0003A2048710920C872542008736520487351
:100B00006D2088737020C8733A2008740920C87556
:100B10002E200875C876092088770D20C8770A200E
:100B200081F8200001208E49087072B68E4800F0CE
:100B300051F9044662B604B970BD2046FFF77DFC4A
:100B40008A4908608A48006842F21071B0FBF1F0EF
:100B50003030844988718648006842F21071B0FBD9
:100B6000F1F201FB12004FF47A71B0FBF1F030307A
:100B70007C49C8717E48006842F21071B0FBF1F206
:100B800001FB12004FF47A71B0FBF1F201FB12008D
:100B90006421B0FBF1F0303072490872744800688B
:100BA00042F21071B0FBF1F201FB12004FF47A71C6
:100BB000B0FBF1F201FB12006421B0FBF1F201FB8A
:100BC00012000A21B0FBF1F03030664948726848E3
:100BD000006842F21071B0FBF1F201FB12004FF419
:100BE0007A71B0FBF1F201FB12006421B0FBF1F26B
:100BF00001FB12000A21B0FBF1F201FB12003030C0
:100C00005849887242F2107094FBF0F0303048740A
:100C100042F2107094FBF0F100FB11404FF47A7136
:100C200090FBF1F030304F49887442F2107094FB21
:100C3000F0F100FB11404FF47A7190FBF1F201FBEF
:100C40001200642190FBF1F030304649C87442F242
:100C5000107094FBF0F100FB11404FF47A7190FB9F
:100C6000F1F201FB1200642190FBF1F201FB120092
:100C70000A2190FBF1F030303A49487542F2107089
:100C800094FBF0F100FB11404FF47A7190FBF1F20C
:100C900001FB1200642190FBF1F201FB12000A211A
:100CA00090FBF1F201FB120030302E49887542F2C0
:100CB000107095FBF0F03030087642F2107095FB22
:100CC000F0F100FB11504FF47A7190FBF1F03030ED
:100CD0002449487642F2107095FBF0F100FB115068
:100CE0004FF47A7190FBF1F201FB1200642190FB4A
:100CF000F1F030301B49887642F2107095FBF0F12C
:100D000000FB11504FF47A7190FBF1F201FB1200DD
:100D1000642190FBF1F201FB12000A2190FBF1F03B
:100D200030301049087742F2107095FBF0F100FB6B
:100D300011504FF47A7190FBF1F201FB1200642123
:100D400090FBF1F201FB12000A2190FBF1F201FB92
:100D500012003030034948778C77CD77ECE60000FD
:100D6000160000209C000020BD000020180000207C
:100D70000400002010B5002400F074FD002000F0F5
:100D8000D3FF0C2000F0F0F8012000F0CDFF00F0C0
:100D900053FD0A2000F0E8F80821054800F0A2FA07
:100DA00000B10124282000F0DFF8204610BD00002B
:100DB0000018014070B50025002407E06D10FFF712
:100DC000D9FF08B145F08005601CC4B2082CF5DBE2
:100DD000284670BD2DE9FF41074600F033F820B9E1
:100DE0004FF0FF3004B0BDE8F081CC2000F074F883
:100DF000442000F071F800F025F8CC2000F06CF8E9
:100E0000BE2000F069F8FFF7D5FF0546FFF7D2FFD7
:100E100004462646300206B22E433046FFF716FB44
:100E2000CDE9020105A00CC80298FFF78EFACDE9C2
:100E30000001FFF730FB06B23046D3E700000000A8
:100E40000000194010B5002400F00CFD012000F056
:100E50006BFF012000F088F8002000F065FF4FF4E0
:100E6000FA7000F081F8012000F05EFF022000F02F
:100E70007BF800F0E1FC08E0601CC4B2012000F047
:100E800073F8642C01DD002010BD0821054800F036
:100E900029FA0028F0D14FF4CD7000F065F8012058
:100EA000F2E700000018014010B5044600F0DAFC3B
:100EB000002000F039FF0C2000F056F804F001008B
:100EC00000F032FF1E2000F04FF8012000F02CFF50
:100ED000052000F049F810BD70B50446002505E076
:100EE0002046FFF7E1FF6410681CC5B2082DF7DB50
:100EF00070BD70474FF0E021096921F004014FF007
:100F0000E02211610146C21700EB5272D210054B6C
:100F10001A70194609784FF47A7251439A1C11805D
:100F200070470000000000200E49098841434FF03F
:100F3000E02251611146096941F00101116100BFD0
:100F40004FF0E021096911F4803FF9D04FF0E02122
:100F5000096921F001014FF0E02211610021916146
:100F600070470000020000200B49097841434FF010
:100F7000E02251611146096941F00101116100BF90
:100F80004FF0E021096911F4803FF9D000214FF0C2
:100F9000E022116191617047000000200149486121
:100FA000704700000090024001460868C0F30D4001
:100FB0007047000000B500220F480068006810F07C
:100FC000004F16D10C480068006810F4004F10D193
:100FD00009480068006810F4807F0AD0064800685D
:100FE000006810F4007F04D003480068FFF7DCFFBE
:100FF0000246104600BD00004000002010B501E090
:1010000000F0EEFBFFF7D6FF0028F9D14020FFF7F4
:10101000C5FF4FF48030FFF7C1FF10BD1EB50021A2
:101020006C4600221346944684E80C10214A12684C
:10103000126812F0004F10D0002200921E4A52692E
:1010400012F0800F04D080221B4B5A6100229A605C
:101050006A461CCA80E81C001EBD164A1268126847
:1010600012F4004F16D1134A1268126812F4807FEE
:1010700010D0104A1268126812F4007F0AD00D4A8C
:1010800012681268C2F30D42111F0A4A1268926870
:10109000019200E000210091064A12680292054A7E
:1010A0001268D268034B1A606A461CCA80E81C00AA
:1010B000D2E70000400000200090024010B501205F
:1010C00004490870002004490880102000F006F848
:1010D00010BD000084000020860000200149086047
:1010E0007047000014040140002127498279002A3A
:1010F00043D0264AD2F8002403689A43234BC3F80E
:1011000000241A46D2F8042403689A4301F1040328
:101110001A60027911440A68036842EA03020A600D
:101120001A4AD2F80824036822EA0302174BC3F8CC
:1011300008241A46D2F80C24036822EA0302144B4E
:101140001A604279102A10D1104AD2F80824036894
:101150001A430E4BC3F808241A46D2F80C2403682D
:101160001A430A4BC3F80C240DE007494279114495
:101170000A6803681A430A6005E0027911440A68A4
:1011800003689A430A607047000401400000014070
:101190000C0401400246704730B500228B071C0F3B
:1011A0000F2303FA04F20A4B8C1053F824409443A3
:1011B0008D1043F825408C1053F824308C07240FF1
:1011C00000FA04F42343024C8D1044F8253030BD5E
:1011D000080001402DE9F0410022002300240025F1
:1011E0000026002791F803C00CF00F0291F803C00D
:1011F0001CF0100F03D091F802C04CEA0202B1F8C3
:1012000000C01CF0FF0F31D0066800242BE04FF027
:10121000010C0CFA04F5B1F800C00CEA0503AB426E
:1012200020D1A5004FF00F0C0CFA05F7BE4302FACF
:1012300005FC4CEA060691F803C0BCF1280F06D164
:101240004FF0010C0CFA04FCC0F814C00AE091F84D
:1012500003C0BCF1480F05D14FF0010C0CFA04FC9F
:10126000C0F810C0641C082CD1D30660B1F800C0CF
:10127000BCF1FF0F34DD466800242EE004F1080CB9
:101280004FF0010808FA0CF5B1F800C00CEA0503AC
:10129000AB4221D1A5004FF00F0C0CFA05F7BE436D
:1012A00002FA05FC4CEA060691F803C0BCF1280FCF
:1012B00005D104F1080C08FA0CF8C0F8148091F874
:1012C00003C0BCF1480F07D104F1080C4FF001082E
:1012D00008FA0CF8C0F81080641C082CCED34660C5
:1012E000BDE8F0810246002093680B4201D0012046
:1012F00000E000207047416170470161704710B500
:10130000FEF730FF00BFFEE710B500F067F801F010
:10131000CDF910BD1FB50121084600F07BF940F65C
:101320000F640121880700F0EBFB4FF4A06000F090
:1013300007F91C208DF80C0003208DF80D0000200B
:101340008DF80E0001208DF80F0003A800F0B6F80C
:101350000121880700F0E3FB00220121880700F04B
:10136000FEFB00214FF0804000F0DCFBADF80040B8
:101370000020ADF80600ADF80200C820ADF804006A
:101380006946C00600F0FAFB0121880700F0C7FBA0
:1013900001221146900700F0E2FB00214FF080404F
:1013A00000F0E9FB0121880700F0BCFB1FBD000035
:1013B00008B50121402000F03DF90820ADF80000FB
:1013C00001208DF8020014208DF8030069460248C0
:1013D000FFF700FF08BD0000001801401FB5012104
:1013E000102000F027F90121042000F023F9012149
:1013F000402000F01FF90121084600F01BF90A20E7
:101400008DF80C0000208DF80D008DF80E000120E5
:101410008DF80F0003A800F051F80420ADF8080083
:1014200001208DF80A0010208DF80B0002A9174842
:10143000FFF7D0FE04211548FFF75FFF0421134892
:10144000FFF759FF1020ADF8080003208DF80A00BF
:1014500004208DF80B0002A90D48FFF7BBFE042104
:101460000220FFF799FE1020009000208DF8040064
:101470000C208DF8050001208DF806006846FFF766
:1014800033FE1020FFF72AFE1FBD000000180140A8
:101490000010014000BFFEE7704710B500214FF07B
:1014A000006000F06BF800214FF0006000F066F87B
:1014B0004FF4A06000F044F810BD000070B50021AA
:1014C00000230F22C4784CB31A4C246804F4E0645F
:1014D000C4F5E0644FEA1421C1F1040322FA01F2D9
:1014E000447804FA03F1847804EA020444EA01012E
:1014F0004FEA0111104C0678A155047804F01F053D
:101500004FF0010404FA05F405784FEA65154FF031
:10151000E02606EB8505C5F8004109E0047804F0F3
:101520001F040125A540054C0678761144F8265085
:1015300070BD00000CED00E000E400E080E100E0A0
:1015400002490143024A1160704700000000FA0599
:101550000CED00E010B5002807DA0A07130E054A63
:1015600000F00F04241F135503E00A07130E024A6C
:10157000135410BD18ED00E000E400E0024A0A40F8
:101580000243024B1A60704780FFFF1F08ED00E026
:101590007047000070B5044618480068201AB0F57E
:1015A0007A7F29D315480460FFF78AFA144908683E
:1015B0001449FEF78AFE06464FF07E523146124825
:1015C00001F0EAF8114908600E4910480068FEF77A
:1015D0009DFF05D300210D480068FEF7A1FF07D24B
:1015E0000A480068FEF743FFC5B2284600F0D4F968
:1015F0000121074800F096FA70BD00008C00002021
:10160000180000200000C842C82A002090000020D6
:101610000008004029B1064AD2690243044BDA614E
:1016200004E0034AD2698243014BDA61704700004B
:101630000010024029B1064A92690243044B9A61A4
:1016400004E0034A92698243014B9A6170470000AB
:10165000001002402DE9F041002100220023002467
:101660000025002600278C46DFF86481D8F8048026
:1016700008F00C0121B1042907D0082959D109E04B
:10168000DFF85081C0F8008058E0DFF84881C0F8EA
:10169000008053E0DFF83881D8F8048008F4701235
:1016A000DFF82C81D8F8048008F48033920C0D2ADE
:1016B00001D0921C00E0062233B9DFF81C8102FB46
:1016C00008F8C0F8008033E0DFF80481D8F82C80F7
:1016D00008F48035DFF8F880D8F82C8008F00F087F
:1016E00008F1010645B9DFF8EC80B8FBF6F808FB15
:1016F00002F8C0F800801BE0DFF8D480D8F82C8016
:10170000C8F3031808F10107DFF8C480D8F82C806B
:10171000C8F3032808F1020CDFF8B880B8FBF7F82B
:1017200008FB0CF8B8FBF6F808FB02F8C0F80080DC
:1017300004E0DFF8A080C0F8008000BF00BFDFF841
:101740009080D8F8048008F0F0010909DFF88C8057
:1017500018F80140D0F8008028FA04F8C0F8048096
:10176000DFF86C80D8F8048008F4E061090ADFF83B
:101770006C8018F80140D0F8048028FA04F8C0F80A
:101780000880DFF84C80D8F8048008F46051C90A5A
:10179000DFF8488018F80140D0F8048028FA04F8EF
:1017A000C0F80C80DFF82880D8F8048008F44041A5
:1017B000890BDFF8288008F1100818F80140D0F8EC
:1017C0000C80B8FBF4F8C0F81080BDE8F081000090
:1017D0000010024000127A0000093D00280000209D
:1017E0000EB51148FFF71AFC0F4968460EC90EC026
:1017F0000D48006840F2DC51884205D80A4802686A
:1018000041680A48FEF7C2FC4FF00040064989686B
:1018100008600748406910F0800F04D08020044918
:101820004861002088600EBDBC2A0020E024002012
:10183000009002407047000008B501214020FFF7EA
:10184000F9FE0820ADF8000001208DF802004820C4
:101850008DF8030069460248FFF7BCFC08BD000094
:101860000018014008B501214020FFF7E3FE0820E1
:10187000ADF8000001208DF8020014208DF803005F
:1018800069460248FFF7A6FC08BD000000180140A9
:1018900010B500F001F810BD002000213A4A12688E
:1018A00042F48032384B1A6000BF374A126802F4A3
:1018B0000031401C11B9B0F5A06FF6D1324A126860
:1018C00012F4003F01D0012100E0002101295AD18A
:1018D0002E4A126842F010022C4B1A601A46126807
:1018E00022F003021A601A46126842F002021A60DD
:1018F000254A5268244B5A601A4652685A601A4662
:10190000526842F480625A601A46D26A204B1A40EA
:101910001D4BDA621A46D26A1E4B1A431A4BDA6220
:101920001A46126842F080621A6000BF164A1268B6
:1019300012F0006FFAD0144A526822F47C12124B53
:101940005A601A46526842F4E8125A601A461268FF
:1019500042F080721A6000BF0B4A126812F0007FDA
:10196000FAD0094A526822F00302074B5A601A461D
:10197000526842F002025A6000BF034A526802F005
:101980000C02082AF9D170470010024000200240E2
:1019900000F0FEFF44060100C0F16401014A11801D
:1019A000704700008800002010B500F04FF910BD0E
:1019B00010B51648006840F0010014490860084658
:1019C00040681349084011494860084600681149B9
:1019D00008400E4908600846006820F4802008602E
:1019E0000846406820F4FE0048600846006820F081
:1019F000A05008604FF47F0088600020C862FFF7A5
:101A000047FF4FF000600449086010BD001002401D
:101A10000000FFF0FFFFF6FE08ED00E010B586B015
:101A2000FFF7C6FF012140F27D20FFF703FEFFF71D
:101A300034FD01A8FFF70EFE64210198B0FBF1F41C
:101A4000B4F1807F00D311E024F07F40401E4FF0BE
:101A5000E02148610F214FF0FF30FFF77BFD0020B0
:101A60004FF0E02188610720086100BF0121881E36
:101A7000FFF770FD06B010BD10B50121880700F01A
:101A80005DF860B10121880700F046F80121880760
:101A900000F045F8024800680A300149086010BDAE
:101AA0001C00002010B50121074800F047F848B19C
:101AB0000121054800F030F80121034800F02FF81B
:101AC00000F08AFF10BD00000004004010B50121A5
:101AD000094800F033F870B10121074800F01CF804
:101AE0000121054800F01BF804480088401C034908
:101AF0000880FEF7CBFF10BD0008004086000020E4
:101B000021B1028842F08002028004E002884FF690
:101B10007F731A4002807047CA4302827047CA43EB
:101B20000282704721B1028842F00102028004E083
:101B300002884FF6FE731A400280704730B50246A5
:101B4000002000230024158A05EA0103958905EA8F
:101B5000010413B10CB1012000E0002030BD10B52C
:101B60001AB183890B43838104E08389CC43A4B2F7
:101B70002340838110BD81847047000000220288C9
:101B80001D4B98420ED01D4B98420BD0B0F1804FA8
:101B900008D01B4B984205D01A4B984202D01A4BE2
:101BA000984204D14FF68F731A404B881A43174B53
:101BB000984207D0164B984204D04FF6FF431A4084
:101BC000CB881A4302808B8883850B8803850A4B58
:101BD00098420BD0094B984208D00E4B984205D042
:101BE0000D4B984202D00D4B984201D10B7A0386DF
:101BF0000123838270470000002C01400034014023
:101C00000004004000080040000C004000100040AC
:101C100000140040004001400044014000480140E1
:101C200010B5044607480068201AB0F5FA6F07D3CC
:101C300004480460FEF744FF21210348FFF7AAFA95
:101C400010BD0000080000209C00002070474FF4E9
:101C5000FA7000E0401E0028FCD1704710B5042146
:101C60000448FFF748FBFFF7F2FF04210148FFF7A4
:101C700044FB10BD0018014010B540F225510B483F
:101C800000F025F8012806D140F22551074800F060
:101C90000FF800F0A9FE40F22771044800F017F891
:101CA000012801D100F0A8FE10BD00000044004052
:101CB00010B500220023A1F510646A3C00D100BFDA
:101CC0000A1201249440A3B2DC43048010BD70B515
:101CD00002460023002400250020A1F510666A3E7C
:101CE00000D100BFC1F3421501F01F04012606FA1E
:101CF00004F4012D02D19689344006E0022D02D170
:101D0000168A344001E0968A34400B12012606FA06
:101D100003F31688334014B10BB1012000E000201A
:101D200070BD00BFFEE7000010B5044624B10821D5
:101D30000448FFF7E2FA03E008210248FFF7DBFA64
:101D400010BD0000001801400FB410B503A9044BEA
:101D5000044A029800F0E8F810BC5DF814FB00009B
:101D60009D2600089800002002E008C8121F08C144
:101D7000002AFAD170477047002001E001C1121F0C
:101D8000002AFBD1704700002DE9FF5F84B08B462D
:101D9000DDE9060100234FEA1154DDE912895940BB
:101DA0005840084310D1012456A3B9F1010F02D1C4
:101DB0006FEA080100E000210498C0E90249C0E987
:101DC000003108B0BDE8F09FA4F2FF3444F6105093
:101DD00044432514B9F1010F404601D1464201E0C8
:101DE0002E1A761C48A003C87442CDE9000148A011
:101DF000D0E900A7002E14DB344612E0E00707D03C
:101E0000DDE9002339465046FEF79FFA82460F4629
:101E1000DDE9002319461046FEF797FA6410CDE974
:101E20000001002CEAD1DDE90601002E3B465246B6
:101E300002DAFEF78AFA01E0FEF729FD36A20CCAA3
:101E400004460E46FEF7C8FD03D84FF0FF3637466E
:101E500009E033A00CC831462046FEF769FCFEF7C6
:101E6000A2FD06460F4610240FE0002C14DB0023D1
:101E70000A2239463046FEF773FB02F130020BF8B6
:101E8000042006460F46A4F10104002387EA03015B
:101E900086EA03000843E8D1641C0BEB0400C4F19C
:101EA000110A0390B9F1010F10D1002387EA030151
:101EB00086EA0300084304D1AAEB0805A5F1010551
:101EC00018E04FF011084FF0000983E700230124C8
:101ED00087EA030186EA0300084301D1C24502DD17
:101EE00000246D1C04E003DA4FF00004A5F10105A5
:101EF000002CEAD00498C0E902A94560039901606A
:101F00005FE70000300000000000000000002440F7
:101F1000000000000000F03F000000000000F0435F
:101F2000000000000000E03F2DE9FF4F99B0064699
:101F30009A460F46002573E3252879D10024761CA4
:101F4000FF4AA046012117943378203B01FA03F0A1
:101F5000104202D00443761CF6E730782A2816D1C6
:101F600001CF1790002803DA404244F40054179040
:101F700044F00204761C11E0179844F0020400EBD0
:101F8000800002EB40000844761C179001E06FF0DF
:101F90002F023178A1F130000928EDD930782E28B0
:101FA00018D116F8010F44F004042A280BD157F871
:101FB000048B761C0EE008EB880002EB400001EB7E
:101FC0000008761C01E06FF02F023178A1F130009B
:101FD0000928F0D930786C280ED008DC4C2816D0AF
:101FE00068280CD06A2813D144F400140FE0742838
:101FF0000DD07A280CD10AE044F4801401E044F4B6
:1020000040147178814202D1761C04F58014761C4C
:10201000307866280BD013DC582827D009DC00283C
:1020200073D04528F6D04628F4D0472885D1A1E1C1
:10203000FEE2632833D0642878D06528F6D199E190
:10204000702872D00CDC6728F1D069286ED06E2819
:102050000ED06F28EAD108210022CDE91212AEE09D
:10206000732826D0752871D07828DFD11021F3E7A6
:10207000C4F30250022804D13868E917C0E90051BE
:102080000AE0032802D13868058005E00428386892
:1020900001D1057000E0056007F10407BFE201CF40
:1020A0008DF8540000208DF855000DF1540B0120DF
:1020B00003E057F804BB4FF0FF3061074FF0000119
:1020C0000CD501E009F101018946414510DA81454D
:1020D000F8DB1BF809100029F4D109E001E009F14F
:1020E000010189468142FADB1BF809100029F6D16B
:1020F00017985346A0EB0908214640461B9A00F06A
:10210000B6FA284400EB090506E08DE20EE01BF864
:10211000010B52461B999047B9F101008146F6D256
:102120005346214640461B9A20E140E00A20002108
:10213000CDE91201C4F30250022808D1FF1D27F097
:102140000707D7E900910837159112E02DE002CF7B
:10215000CA1789461592032804D10FFA89F1CA17C4
:1021600089461592042804D14FFA89F0C117814697
:10217000159100231599B9EB0300994108DA1599D7
:10218000D9F1000961EB41014FF02D00159102E0FA
:10219000200504D52B208DF82000012003E0E00766
:1021A00001D02020F7E7834657E00A2154E71021A9
:1021B0000022CDE9121244F004044FF00808C4F3E1
:1021C0000251022907D1FF1D27F00707D7E9009226
:1021D000083715920BE0002357F8049B1593032949
:1021E00001D11FFA89F9042901D109F0FF094FF043
:1021F000000B210731D5702804D140208DF8200034
:10220000012013E0DDE912011022504008430ED1F5
:102210000023159989EA03005940084307D030206C
:102220008DF8200030788DF8210002208346DDE90A
:1022300012010822504008430FD10023159989EA62
:1022400003005940084301D1600706D530208DF8BE
:1022500020004FF0010BA8F10108317839A058296E
:1022600000D03DA0079012A809900EE0DDE91223EE
:1022700048461599FEF774F9079B81469B5C099ABD
:10228000A2F101020992137015910023159989EAB0
:10229000030059400843E9D109990AA8A0EB0100BD
:1022A00000F12009600702D524F4803401E04FF0EA
:1022B00001080020C84501DDA8EB0900169048443C
:1022C00017995844A1EB00001790E00306D4534639
:1022D00021461B9A179800F0CAF90544002008E02F
:1022E00008A810F8080052461B9990476D1C08F189
:1022F000010080465845F3DBE0030CD553462146E8
:102300001B9A179800F0B3F9054404E030205246B8
:102310001B9990476D1C1698411E16910028F5DCFC
:1023200008E0099809990078491C099152461B99BF
:1023300090476D1CB9F10000A9F10109F1DC69E1D8
:1023400009280100303132333435363738394142CB
:1023500043444546000000003031323334353637CF
:1023600038396162636465660000000000F06CF952
:10237000054454E1600701D44FF0060807F1070750
:1023800027F00707D7E90001CDE902014FF000006F
:1023900001F0004181EA000180EA000007F108072E
:1023A000084301D0A5A007E0A5A0210504D4A5A05D
:1023B000E10701D1AFF264000790039820F00041DB
:1023C0003078652828D006DC452825D046283AD024
:1023D000472858D103E0662835D06728F9D1B8F1ED
:1023E000010F01DA4FF0010800231122B8F1110F9B
:1023F00000DC4246CDE900230B460AA912A8029A46
:10240000FFF7C2FC4FF0000BC146200748D41499D7
:1024100049453CDA084639E000231122B8F1110F92
:1024200001DA08F10102CDE900230B460AA912A83E
:10243000029AFFF7A9FC012005904FF0000B08F16C
:10244000010913984DE00123CDE900834FF00040CE
:1024500004900B460AA912A8029AFFF795FCDDE941
:1024600014904FF0000B20B9139908F1010001EB13
:102470000009B8EB090003D4C0F1FF3B08F10109E2
:10248000A9EB080005902DE0A9F101008146B9F102
:10249000010F05DD1299A9F10100085C3028F3D085
:1024A0001399414503DA084611F1040F03DA0120BC
:1024B0000590084615E0002804DC13998344A9EB35
:1024C000010005E0401C484503DD139800F10100C0
:1024D00081461399A1EB0B0000F1010005904FF02C
:1024E00000400490200705D40599494502DB4FF0D0
:1024F000FF30059000218DF8271004980DF1270872
:10250000B0F1004F29D0022001902B2000900498B8
:1025100000280EDA404204902D20009009E00A21A4
:102520000498FEF707F80490A8F1010030318046C6
:1025300001700198411E01910028F0DC04980028E8
:10254000EDD1A8F10100009900F801193178804619
:1025500001F0200141F04501017008A8A0EB08003E
:1025600000F1070006900798007800B10120059956
:10257000484400EBE170069908441799A1EB00006C
:10258000A0F101001790E00306D4534621461B9AA0
:10259000179800F06CF805440798007820B152466F
:1025A0001B99904705F10105E00322D553462146CA
:1025B0001B9A179800F05BF805441AE0BBF1000F76
:1025C00007DB1498584504DD12981B9910F80B008E
:1025D00001E01B9930205246904705986D1C401E23
:1025E0000BF1010B059004D12E2052461B99904708
:1025F0006D1CB9F10000A9F10109DFDC05E018F854
:10260000010B52461B9990476D1C0698411E06917E
:102610000028F4DC534621461B9A1798A6E6761C40
:10262000307800287FF488AC28461DB0BDE8F08FD4
:1026300052461B9990476D1CF1E700002D000000E9
:102640002B000000200000002DE9F0410446002589
:1026500017461E46880407D504E039462020B047B7
:1026600005F10105641EF8D52846BDE8F0812DE985
:10267000F04104460025302790461E46C80300D48A
:102680002027880407D404E041463846B04705F1C6
:102690000105641EF8D52846BDE8F08138B504462A
:1026A000009069460320ABBE204638BD1FB501210E
:1026B0000420FEF7AFFF40F63F3401212148FFF729
:1026C0001FFA4FF48060FEF73BFF1E208DF80C00D0
:1026D00003208DF80D0000208DF80E0001208DF8EC
:1026E0000F0003A8FEF7EAFE01211648FFF717FACC
:1026F000002201211348FFF732FA00211148FFF7A9
:1027000011FAADF800400020ADF80600ADF8020067
:102710000120ADF8040069460A48FFF72FFA0121AD
:102720000848FFF7FCF9012211460648FFF717FA9F
:1027300000210448FFF71FFA00210248FFF7F2F9D1
:102740001FBD00000008004010B500231A460449D0
:10275000044800F00BF90449024800F037F910BDB5
:1027600000007041C82A00200000204210B5FFF789
:1027700055F9FEF7CFFDFEF7C7FDFFF7E5FF07E0D0
:1027800004480068FFF74CFA02480068FEF702FFB1
:10279000F6E700001C0000202DE9F04F9DB0044634
:1027A0000D4616462946E068FDF754FD8146314640
:1027B0004846FDF755FD83462169FDF7F9FC0746BC
:1027C00048466169FDF746FD83463146FDF77DFDCC
:1027D00080464046A168FDF743FD1B90384661687E
:1027E000FDF73EFD1A9048462168FDF739FD199026
:1027F0001A99FDF7DDFC83461B99FDF7D9FC82464B
:10280000A06910F0020F5FD000213846FDF77EFE70
:1028100002D287F0004000E038468346E169FDF7C8
:1028200075FE01D1012000E000200D902069FDF728
:102830005BFECDE91A014846FDF756FECDE91801C9
:102840004046A168FDF70CFD8346FDF74DFECDE93E
:10285000160138466168FDF703FD8346FDF744FE27
:10286000CDE9140148462168FDF7FAFC8346FDF7DF
:102870003BFECDE912012846FDF736FECDE91001F9
:10288000E068FDF731FECDE90E010D9B0C93DDE90B
:102890001A01CDE90A01DDE91801CDE90801DDE9F8
:1028A0001601CDE90601DDE91401CDE90401DDE9F8
:1028B0001201CDE90201DDE91001CDE9000121A0FD
:1028C000DDE90E23FFF740FAA06910F0010F1CD0DC
:1028D00000213846FDF71AFE0ED2E06980F0004B69
:1028E00039465846FDF71CFE03D2E06980F00040EF
:1028F00000E03846074608E03846E169FDF706FE85
:1029000001D2384600E0E06907462761A06910F06F
:10291000040F08D05046616AFDF7F8FD03D2606AE3
:102920001DB0BDE8F08FA06910F0080F06D050462A
:10293000216AFDF7F5FD01D2206AF1E7C4F8149091
:102940005046EDE7252E31662C252E31662C252E9E
:1029500031662C252E31662C252E31662C252E3104
:10296000662C252E31662C25640A00002DE9F041E5
:1029700004460D4616461F4625606660A760002087
:10298000E06060612061A061A06910F0020F02D0D8
:1029900002A0FFF7D9F9BDE8F081000073657470FB
:1029A0006F696E742C76616C75652C502C492C44C3
:1029B0002C6572726F722C695F746F74616C2C6914
:1029C0006E745F77696E6475700A0000C1600022E2
:1029D000426102617047000010B5024800688047FC
:1029E00010BD00007800002010B502480068804744
:1029F00010BD00007000002010B50248006880473C
:102A000010BD000074000020282A000800000020EB
:102A10009C000000681D0008C42A00089C000020DB
:102A2000542E0000781D0008000000000000000087
:102A30000000000000000000000000000000000096
:102A40000000000000000000000000000000000086
:102A50000000000001020304010203040607080944
:102A60000204060800000000000000000000000052
:102A70000000000000000200000000000000000054
:102A80000000000000000000000000000000000046
:102A90000000000000000000000000000000000036
:102AA0000000000000000000000000000000000026
:102AB0000000000000000000000000000000000016
:042AC0000000000012
:04000005080001519D
:00000001FF
